:020000041000EA
:1000000000B5324B212058609868022188439860DF
:10001000D860186158612E4B002199600221596106
:100020000121F02299502B49196001219960352056
:1000300000F044F80222904214D00621196600F024
:1000400034F8196E01211966002018661A6600F04E
:100050002CF8196E196E196E052000F02FF8012189
:100060000842F9D1002199601B49196000215960AB
:100070001A491B48016001219960EB211966A021F2
:10008000196600F012F800219960164914480160C1
:100090000121996001BC002800D000471248134993
:1000A000086003C880F30888084703B5996A0420EC
:1000B0000142FBD001200142F8D103BD02B5186610
:1000C0001866FFF7F2FF186E186E02BD00000240BE
:1000D000000000180000070000035F00212200005C
:1000E000F4000018222000A00001001008ED00E03C
:1000F00000000000000000000000000074B24E7A12
:1001000000200420F7010010C3010010C5010010F9
:10011000C1010010C1010010C1010010C101001097
:10012000C1010010C1010010C1010010C701001081
:10013000C1010010C1010010C9010010CB01001065
:10014000CD010010CD010010CD010010CD01001037
:10015000CD010010CD010010CD010010CD01001027
:10016000CD010010CD010010CD010010CD01001017
:10017000CD010010CD010010CD010010CD01001007
:10018000CD010010CD010010CD010010CD010010F7
:10019000CD010010CD010010CD010010CD010010E7
:1001A000CD010010CD010010CD010010CD010010D7
:1001B000CD010010CD010010CD010010CD010010C7
:1001C00000BE00BE00BE00BE00BE00BE00F04BF888
:1001D000103800BEF2EB8871F8790010207A001018
:1001E0003402001090A31AE700202149086006C8D5
:1001F00081F3088810471F48006800282FD10DA4FC
:100200000ECC002902D000F012F8F9E71A491B4A77
:10021000002000E001C19142FCD1194988471949E9
:1002200088471949884700BEFDE701C901C29A42C3
:10023000FBD37047207A0010C0000020F00D002092
:100240005087001000000420000004205087001098
:1002500000100420001004200000000070470B482C
:1002600001F0A8FD0047EFF30580C0B27047000021
:1002700008ED00E0000000D0F00D0020C01B0020C1
:10028000951400100D030010B9150010575600000A
:1002900006005250ABB360537C77001006005250FA
:1002A000861C03028C770010060052505422A29D37
:1002B0009877001005005250DE65F46850870010F2
:1002C000F8B5C04610B5064C2378002B07D1054B76
:1002D000002B02D0044800E000BF0123237010BDB2
:1002E000F810002000000000F8760010044B10B554
:1002F000002B03D00349044800E000BF10BDC046F6
:1003000000000000FC100020F8760010F0B5DE467A
:10031000474680B587B00822002104A802F03CFEC1
:100320000021404803F0A2F803F04AF800239B465E
:100330003D4D002003F04AF88046584602F04EFD3D
:100340003A49041C02F02FFD02F0A8FD01F020FE46
:10035000009001913649201C02F025FD02F09EFD1F
:1003600001F016FE0F00EA2106008905201C02F0AC
:100370002EFD02F093FD01F00BFE01239C460022AE
:100380002C4B0290039100980199E34401F0D1FDB8
:1003900001F0E8FD02F04AFD04AB002218803900AC
:1003A000244B300001F0C5FD01F0DCFD02F03EFD04
:1003B00004AB002258801F4B0298039901F0B9FD4D
:1003C00001F0D0FD02F032FD04AB988000234046DE
:1003D00004AAD380FF331840412816D05328A8D14F
:1003E0008024E4002B68012208219B6804A806F001
:1003F000BFF82B68013C986805F02AFE0120002117
:1004000000F044FD002CEDD193E72B680122082178
:100410009B6804A806F0ACF82B68986805F018FEF5
:1004200087E7C046540500209405002000007F4364
:100430000000FE42C0FFDF40094A8300944640228C
:10044000634410B51C68C0006240C0241440802280
:10045000520113431C60034B9C466044416010BD35
:1004600004C001400040014070B5EFF3108C72B63B
:100470000D4D2B68002BFCD0BFF35F8F0724CB08FA
:10048000C618C05C01230C40A3401C00044003427A
:1004900007D103433370BFF35F8F2C608CF3108858
:1004A00070BD100001F08AF82C0100D0F8B5474665
:1004B000CE46884680B5EFF3108C72B6214D2C687D
:1004C000002CFCD0BFF35F8F9A422CD8D4080727AA
:1004D000055D061901241740BC402C421FD007219E
:1004E0000127894609E0D408055D06194C46390004
:1004F0001440A1400C00294211D001329342F2D2A3
:1005000001204042BFF35F8F00220E4B1A608CF334
:10051000108800280FDBC0BCB946B046F8BD2C439C
:1005200010003470EEE7BFF35F8F00232B608CF375
:100530001088012040424346002BECD0089801F07F
:100540003DF8C0462C0100D0024B18688007C00F50
:100550007047C04600C006400021044B044ABFF368
:100560005F8F02C39342FAD17047C046000100D0AA
:10057000800100D0044A1078431CDBB2172B00D94D
:10058000102313707047C046A804002000B5054B27
:1005900083B00100009318221F230348FFF786FF52
:1005A00003B000BDF8760010B8160020F8B50400BE
:1005B00006200D0001F07EF9002844D02A4B2B497B
:1005C000E21853425A418023DB039C469205284B94
:1005D00062441A60274B1A6010008B689843FBD165
:1005E000214B8021E3185A425341234A5B004900C2
:1005F0009952062001F05EF92900C00001F034FC98
:10060000C30921D140270121260080256162A36210
:1006100000232C36AD0135432B60062001F04AF94A
:100620003900800001F020FC6023E26A53406E2212
:100630001A4080235B0133431A60104B236310235D
:100640002B600D3BA364F8BD0D4A934203D90023F0
:100650000C4F0D49D8E77F221040013040089F0120
:1006600019003F180300CFE70080FCBF00C0004026
:1006700000E0004000F00040A01B0020010300004B
:10068000FEFF0000C0FF3F00FFFF000083680B4833
:1006900010B5844661446244090112019A18591840
:1006A00054684B6801209C4201D802D00020C0B29F
:1006B00010BD12680B689A42F9D8F7E7FFFFFF0FE9
:1006C0000A4B1968EFF3108072B60A68002AFCD052
:1006D000BFF35F8F1B68BFF35F8F00221A6080F348
:1006E000108840BF002000217047C046841B0020B6
:1006F000F8B557464E464546DE46E0B599460CAB42
:100700001C780DAB1B78060090469A460768002CB3
:1007100011D1BC7B002C42D065003B682D19033DF4
:1007200059194B78BB73002B00D1FB7300238B70DE
:100730004B700B7004E065003B682D19033D59199F
:10074000B2682A4B94464246E3181B0163441A6080
:100750004A465A600A9A9A600B9ADA6000238B70B4
:100760004B700B707B7B9B46002B2BD02200594695
:10077000B8687B6898473A68002816D05B465846A8
:100780005B005B445519033BA870D118D35C002B68
:1007900000D06B705B460C707B73A34513D0F0BC2C
:1007A000BB46B246A946A046F8BD5B465B005B442B
:1007B000033BD3189C705119525D002A00D05A7027
:1007C0005B460B707C7342464B46307D00F0CEFB9F
:1007D000051E06D05346002B03D12100306800F0DF
:1007E0001BFE0E9B002BDAD01D70D8E7FFFFFF0F1A
:1007F000F0B5DE464E46574645460023E0B58DB07F
:100800000A936B4B8200D3580B90994600239B466A
:100810004B46079300F030FB079C06000F00626810
:10082000EFF3108572B61368002BFCD022000794FA
:10083000BFF35F8F2468637B9946002B67D0926873
:100840005C4B90464B441B01984443461A685B68D6
:1008500010001900801BB94100295FDD0B9800F0E2
:1008600085FB00230026984600279A46079C63686C
:10087000BFF35F8F5A461A6085F310885346002BEA
:1008800008D10028C6D10DB0F0BCBB46B246A9467F
:10089000A046F0BD0A9B414618024B461843D0477C
:1008A000089009916268EFF3108572B61368002B07
:1008B000FCD00794BFF35F8F0899099A002A48DBA0
:1008C000114303D0079B1B69002B5DD1079B1B685D
:1008D000D97B002907D04A00521819688C4649462E
:1008E0006244033A51704A46DA734B46079A013B19
:1008F000D168CA5C0132CA545B46079A13615368D7
:10090000BFF35F8F5A461A6085F3108882E7002391
:100910000026984600279A460020A7E7002901D123
:1009200000289BD10021200000F0F8FC43461E68FF
:100930005F689B68079A9A464346DB689846D36887
:100940004B44013B1B780A931B02034313610020B5
:100950008CE72369002BB9D033003C005B1A94412B
:100960001A002300A74219D89F421BD05946049170
:100970000121039149460291414601915146079850
:100980000091FFF7B5FEB7E700F076FA089A099BE9
:1009900006000F0092197B419942E5D9012252428B
:1009A000D317E3E79642E1D901225242D317DDE79C
:1009B000681B0020FFFFFF0FF8B557464E4645461F
:1009C000DE46E0B5404D81468A466A68EFF31088FE
:1009D00072B61368002BFCD0BFF35F8F2E68B47B18
:1009E000002C39D0670033683F19033FDB195A7870
:1009F000B273002A00D1F273A968344A8C46494682
:100A0000A218120162441160514651603049916050
:100A10000021D160997059701970737B9B46002B2F
:100A200035D022001900B0687368984732680028F2
:100A300020D05B4658465B005B44D719033BB87037
:100A4000D118D35C002B00D07B705B460C707373A5
:100A50005C451DD0002626E06B68BFF35F8F1C60ED
:100A600088F3108801204042F0BCBB46B246A9463C
:100A7000A046F8BD5B465B005B44033BD3189C700B
:100A8000D119D25D002A00D05A705B460B70747386
:100A90004A465346287D00F069FA061EDAD0210046
:100AA000286800F0B9FCEB681B19013B19786B68EA
:100AB000BFF35F8F00221A6088F310880020002E99
:100AC000D2D108022043CFE7AC040020FFFFFF0F84
:100AD000C106001010B5124C6368002B04D00A2127
:100AE000104800F0D1FA10BD23000F4A10212068F1
:100AF00000F032FB032000F0B3F9032000F0A6FA67
:100B000003200A4900F0ECF9FFF734FD084B9C463E
:100B1000032360442375074B80006060DC60DEE7E0
:100B2000AC040020841B00208D060010F10700108B
:100B300040000034681B002000487047AC040020CF
:100B4000F0B557464E464546DE46E0B585B00193C2
:100B500010AB1B780600039300239A469846009238
:100B60007268EFF3108972B61368002BFCD0BFF3E4
:100B70005F8F3568AC7B002C49D067002B683F192C
:100B8000033FDB195A78AA73002A00D1EA73B168CF
:100B90004F4A8C4600980199A218120162441060D5
:100BA00051600E9991600F99D16042469A705A70C7
:100BB0001A706B7B9B46002B45D022001900A86859
:100BC0006B6898472A68002830D05B4658465B001F
:100BD0005B44D719033BB870D118D35C002B00D00D
:100BE0007B705B460C706B735C452DD0F3681B19F2
:100BF000013B18787368BFF35F8F42461A6089F330
:100C000010885346002B2CD10002204307E0736864
:100C1000BFF35F8F1C6089F310880120404205B04C
:100C2000F0BCBB46B246A946A046F0BD5B465B00A1
:100C30005B44033BD3189C70D119D25D002A00D0CD
:100C40005A705B460B706C73307D009A019B00F00C
:100C50008DF982460028C9D02100306800F0DCFB05
:100C6000C4E7039B002B30D00E9B00200F999847C0
:100C7000030004000D000B4327D000290DDA009873
:100C8000019902000B00121BAB41994213D818D0F6
:100C900000920193039B9A4662E700F0EDF8020090
:100CA0000B00A4185D4100940195A94203D8F1D12D
:100CB00000998A42EED901235B42DC17009301942C
:100CC000E8E700999142E3D9F5E70020A7E7C0469D
:100CD000FFFFFF0FF8B5CE46474680B506000C0073
:100CE000FFF76AFE00280CDC2D4B0020596A8C426D
:100CF00003D89B6A0130B34245D3C0BCB946B04665
:100D0000F8BD20BF274D6A68EFF3108772B61368ED
:100D1000002BFCD0BFF35F8F2B68C1B29C465B7B7E
:100D20008B4235D0FF2303405A0091466246126839
:100D3000994490464A464244033A9278002A1DD08C
:100D4000EA68000A90464344013B1B78C0B28342E4
:100D500021D06B68BFF35F8F00221A6087F3108881
:100D60000F4A0020536A9C42C7D8926A0130B242AF
:100D7000C3D2E01A421E9041C0B2BEE72B6998422E
:100D8000E7D12A61E5E7601A431E9841C0B2B4E793
:100D9000FF230340D4E7604600F03EFBD9E7C0469E
:100DA00000400540AC040020F0B5D6464F4646460C
:100DB000C0B5EFF305833F22134018001038EFF35E
:100DC000108C72B6204D2A68002AFCD0BFF35F8FCA
:100DD0000122110081401D4C884661631C491700A7
:100DE0000E788A463100C1400F400A4209D1BFF354
:100DF0005F8F2F608CF31088E0BCBA46B146A846DE
:100E0000F0BD14498200646A51588C420FD3124BD2
:100E1000D25843469E4353461E70BFF35F8F002354
:100E20002B608CF31088002AE6D09047E4E70B4A49
:100E30009B00904643441A681A60BFF35F8F0023FB
:100E40002B608CF31088D7E7280100D000400540C4
:100E5000BF1B0020901B0020A8150020D03F05409C
:100E600010B50100024A0348FFF7FEFA10BDC04664
:100E700020770010BC1B0020034B596A0A00986AB7
:100E8000596A8A42FAD170470040054070B50400A3
:100E90000D00124A536A1900966A536A8B42FAD1BE
:100EA0003000190024184D41AB4211D80ED02B0050
:100EB0000A494A6A9A42FCD307D1084A02E0516AB9
:100EC000994202D1916AA142F9D370BDA642EED9EE
:100ED000012301246442E5175B42E9E70040054035
:100EE00070B504000D00EFF3108672B61A4A13684D
:100EF000002BFCD0BFF35F8F002D1BD0200000F033
:100F0000F9FC164981420AD0200000F0FBFC0121C7
:100F1000200000F0D5FC0123A340114A1360114BBF
:100F2000A400E550BFF35F8F00220B4B1A6086F3DD
:100F3000108870BD0B4BA200D5500122A2400A4977
:100F400020000B7893430B70044900F005FD00214D
:100F5000200000F0B5FCE5E7280100D0A90D001045
:100F600038600540A8150020BF1B0020F0B54F4693
:100F7000D6464646C0B507002F4C616A0D00A66AEA
:100F8000616AA942FAD18B4208D805D00120E0BCA1
:100F9000BA46B146A846F0BDB242F7D9EFF3108A7F
:100FA00072B6264801680029FCD0BFF35F8F012587
:100FB000BD402349204C8846097889462943C9B257
:100FC0008C46414660460870391D1E48890065639D
:100FD0000A51B9000B50216A0020294219D0616AD8
:100FE0000800A66A616A8142FAD18B4219D801D100
:100FF000B24216D8CC451DD00F4B1F201D625D6339
:1010000001230740BB40104A1E38136043464A463E
:101010001A70BFF35F8F0022084B1A608AF31088A2
:10102000B5E70020BFF35F8F0022044B1A608AF3FC
:101030001088ACE70120ECE700400540280100D013
:10104000BF1B0020901B002080E200E0EFF3108C1B
:1010500072B60A490B68002BFCD0BFF35F8F0123E7
:101060008340074A0748136202789A430270BFF32D
:101070005F8F00230B608CF310887047280100D02D
:1010800000400540BF1B0020024B9C466144890084
:10109000016070474000003410B50400FFF76AFAA1
:1010A00001002000FFF7F0FFFF232371BFF35F8FE4
:1010B00010BDC04610B50400FFF75CFA0100200027
:1010C000FFF7E2FFFF23A380BFF35F8F10BDC04691
:1010D00010B504000120FFF759FA044B9C46604408
:1010E00080002060BFF35F8F10BDC0464000003419
:1010F00070B5050014001600002915D00C00002A58
:1011000012D080686B689847296800280ED0730059
:101110009B196200033B1219CB18033A9C70881884
:101120008A5C002A15D10670200070BD63001B196F
:101130007200033B9219CB18033A9E7088188A5CA0
:10114000002A02D104703400EEE75A7004703400B3
:10115000EAE75A700670E7E730B583600023CCB247
:1011600043730133047342608373C4730D000068DA
:10117000012C06D9421C0133DBB2137003329C42AE
:10118000F9D1FF2129404B0059180023401803389A
:10119000437030BDF8B5CE46474606000C0080B51A
:1011A000002907D04D0003686D18033D5A19577880
:1011B000002F04D12000C0BCB946B046F8BD79006C
:1011C000C919033988464344597889460021597022
:1011D000517073683A00210080689847336800288E
:1011E00014D042469A18947059195B5D002B00D0B8
:1011F00053700F70270049463000FFF7CBFF3900CE
:1012000002003000FFF774FF0400D3E74246414676
:101210005D19AF709A185B5C002B00D06B70147076
:10122000E9E7C046F0B557464546DE464E46E0B5CE
:101230000D006B0001685B19DF1E0400C85D83B000
:101240000192CA1900284CD043001B18033BCB184D
:101250005E78B446002E16D1019E002E3ED0E67B6D
:10126000002E04D073009B19CB18033B5D70E5730F
:1012700000282FD10023537003B0F0BCBB46B24608
:10128000A946A046F0BD72006244033A89184A7824
:10129000904600224A7091465A70010032002000A8
:1012A000FFF726FF43468246002B07D05B002168EC
:1012B0004344033BCB185A78002A16D14246514684
:1012C0002000FFF715FF2168019BCA19002BC6D12A
:1012D0000028CFD043001B18033BCB180021997086
:1012E000C8E7019B002BBAD1C4E75000801803382F
:1012F000091848788346484648705870414620008F
:10130000FFF7F6FE594680462000FFF743FF4146AF
:1013100002002000FFF7ECFE8046CFE7F0B557460D
:101320004546DE464E46E0B583B00191457B04005C
:101330006B0000685B19DF1EC15DC21900294ED029
:101340004B005B18033BC3185E78B446002E18D1DF
:10135000019E002E40D0E67B002E04D073009B1926
:10136000C318033B5D70E573002931D100232800C9
:101370005370617303B0F0BCBB46B246A946A046A9
:10138000F0BD72006244033A801842789046002211
:10139000427091465A7020003200FFF7A9FE434682
:1013A0008246002B07D05B0021684344033BCB18E7
:1013B0005A78002A17D1424651462000FFF798FE7E
:1013C000019B01002068C219002BC4D10029CDD097
:1013D0004B005B18033BC31800209870C6E7019BC5
:1013E000002BB8D1C2E7500080180338091848789C
:1013F000834648464870587041462000FFF778FE03
:10140000594680462000FFF7C5FE414602002000F5
:10141000FFF76EFE8046CEE770B5040000292CD0A1
:10142000437B8B422ED005684800401803382818AB
:101430008278002A21D053009B18033BEA5CEE1807
:101440008A4202D11BE0002A08D053009B18033BBC
:10145000EB185A788A42F6D142785A70002301225A
:10146000837043702000FFF7DDFE617B02002000E7
:10147000FFF73EFE6073012000E0002070BD43785E
:101480003370EBE701221900FFF7CCFE60730120F7
:10149000F4E7C0462C4B2D4A70B51A602C4A2D4BF0
:1014A0002D491A6014008B689C43FBD12B4D2C4EA8
:1014B000B54208D2013E761BB60808CD98472300F6
:1014C0000134B342F9D100F097F8264A214B1A6053
:1014D000214A9368DB43DB01DD09002BF9D140226F
:1014E000214B224C224E9A675A671A67DA66B44239
:1014F00008D223682000002B20D00834FFF7DAFD43
:10150000B442F6D31B4E1C4CC022A168300001F03F
:1015100049FDA660FFF720F800F052FBFFF7DAFA6A
:10152000164C174EB44208D2013E361BB60808CC02
:1015300098472B0001359E42F9D170BD0834FFF762
:10154000ABFDB442D5D3DDE700E00040BFCDFBFEEC
:10155000FE7F3C0000F0004000C00040D80D00209D
:10156000E80D0020FFFFFF0100F00140D00D00203A
:10157000D80D00200000002000ED00E0E80D002064
:10158000F00D0020094A03001068002805D0084922
:10159000C3188B4207D81360704706480449C31824
:1015A00010608B42F7D901204042F5E75817002020
:1015B00000000420C01B002000BEFDE70FB400B5F2
:1015C000084883B001F024FE049B002B07D005A936
:1015D0001800019100F0CEFB034801F019FE00BE97
:1015E000FDE7C046447700105477001010B501485D
:1015F000FFF7E4FF5877001030B50C2083B000F0FF
:1016000049FBFEF7A1FF00280ED0944B944A1A60C4
:101610005A609A60DA601A615A619A61DA611A62F4
:10162000904A5A6203B030BD8F4CA06700F086FB31
:1016300001228E4B1A60636C012BFCD103228C4B70
:101640001A60894A936B012BFCD102240121894A3B
:1016500089480533009400F0C5FA0523874A012123
:101660008748009400F0BEFA864B5A68FF2A02D8D9
:10167000802252005A608022784C7D4B21691201F1
:10168000804D1A60002905D0606900F0EDFB013043
:101690000138FDD1E0217B4B02201A6811408022E5
:1016A00052012A431160196848400321014011602A
:1016B00004219A681142FCD08022802192012A43A1
:1016C00009011160802252005A606F4B23616F4BF9
:1016D0005968FF2900D85A600321644A6B4B116096
:1016E00002399A681142FCD0E0201A68104080222A
:1016F00052011A431060186848400321014002203B
:10170000116062498A681042FCD080229201134322
:10171000802212011A6080225D4B52004A60636190
:101720005C4B5968FF2900D85A6080225A4BE16906
:101730001201584D1A60002905D0606900F094FB31
:1017400001300138FDD1E02252490B681A40802354
:101750005B012B431A60802380229B012B431201E3
:101760001A6080223E4B52004A60E3614B4B59683D
:10177000FF2900D85A608022494B216A1201474D47
:101780001A60002905D0606900F06EFB0130013855
:10179000FDD1E02241490B681A4080235B012B43B5
:1017A0001A60802380229B012B4312011A60802340
:1017B00080225B004B602A4BD2022362394B59686E
:1017C000914200D25A608022374B616A1201354D36
:1017D0001A60002905D0606900F046FB013001382D
:1017E000FDD1E0222F490B681A4080235B012B4377
:1017F0001A60802380229B012B4312011A608023F0
:10180000DB024B60174B6362284B5A68FF2A02D8F1
:10181000802252005A608022254BA1691201234D7B
:101820001A60002905D0606900F01EFB0130013804
:10183000FDD1E0221D490B681A4080235B012B4338
:101840001A60802380229B012B4312011A6080239F
:101850005B004B600E4BA361E4E6C046BC16002063
:10186000006CDC021BB70000008000403CB0004070
:1018700030B00040002F68590080024000389C1CA6
:1018800000C0024030800040001BB7003C80004098
:10189000405973075480004054B0004060800040BD
:1018A00060B000406C8000406CB000404880004058
:1018B00048B00040014B8000C0587047BC16002063
:1018C00001238340002904D0034A1360034A1360B4
:1018D0007047034A1360FBE780E200E000E100E0AC
:1018E00080E100E001238340014A13607047C04655
:1018F00000E200E0024B10309B688000C058704747
:1019000000ED00E070B50D00EFF3108672B60F4ADF
:101910001368002BFCD0BFF35F8F0D4B10309B681A
:1019200084001B590B4A934203D09D4201D0FFF71C
:101930005DFE074B9B681D51BFF35F8FBFF35F8F49
:101940000022024B1A6086F3108870BD240100D07B
:1019500000ED00E0CD010010F0B5DE4657464E46E2
:101960004546E0B50C0083B0EFF3108A72B65A4AD0
:101970001368002BFCD0BFF35F8F10229146814487
:101980004A46564B96009B689D59554B98469D423A
:1019900005D0A54216D0534FEB1B2F2B14D94F4B1C
:1019A0009B689D51BFF35F8FBFF35F8F00224A4B4F
:1019B0001A608AF3108803B0F0BCBB46B246A94651
:1019C000A046F0BD1D00EAE7012383409B465A462E
:1019D000454B1B681A4000925A46444B1A60BFF3AD
:1019E0005F8FFEF740FC0190002803D0814501D0B5
:1019F000FFF7FCFD01232A009A4393689C4208D11B
:101A00005FE04B005B189B00FB189968A14211D066
:101A10001A00062151560029F3DA009B002B05D04D
:101A20005A46334B1A60304B1A60B8E75A462F4B70
:101A30001A60B4E706215956002921DB4A005018E4
:101A400080003C188046A0689860E079D871062034
:101A500020569871002824DBA488F81A6405241500
:101A600044440019E0240005400D240220439880DE
:101A70005218204B9200BF181A781970BA71CCE72F
:101A80000199002910D1FF3191711B4991801949A9
:101A90000A789A71194ADB1B5B415A43120D0A708E
:101AA000BBE7BD200002E2E7154A1649D21A083A00
:101AB0005002400D01439980134952080A43DA80CD
:101AC000ABE70621515613000029B7DA019A002A24
:101AD000EAD14546DBE7C046240100D000ED00E036
:101AE000CD010010D404002000E100E080E100E01E
:101AF00080E200E0BD1B002000BDFFFFAAAA00009D
:101B00000E05002000F0FFFF00F8FFFFF8B50125EB
:101B100004000543FEF7A7FBEFF3108C72B6214AD1
:101B20001368002BFCD0BFF35F8F1F4E2100B768F6
:101B30001E4A1F4B891A49414B431B0D59B2830062
:101B4000F858A8421CD00623D3568B421CD012232F
:101B5000D3568B4222D01E23D3568B4220D02A2329
:101B6000D35603208B4210D0124B1A781970A271F1
:101B7000BFF35F8F00220B4B1A608CF31088F8BD07
:101B8000B2680D48D050EFE7002043001B189B00BF
:101B9000D218FF239371094B9380E5E70120F4E706
:101BA0000220F2E7240100D000ED00E0D404002080
:101BB000AAAA0000BD1B0020CD01001000BDFFFF40
:101BC000054B064A1360064A136053609360D36066
:101BD00013615361936170478080808000E400E06E
:101BE00004E400E0F0B5C646040000B50C209046C1
:101BF0001F000E0000F038F94101091A8D01691A21
:101C0000C90009188901404600F02EF9069B3F04DF
:101C10001A0323681743002B22DB1A4B1A4DE218D4
:101C200053425A4180235B019C461203174B624486
:101C30001A60174B1A601100AB689943FBD1C022A0
:101C4000231D92011A4321232660A060136023689C
:101C5000002BFCDA0823E760136080BCB846F0BDB7
:101C60003F2322681340B342D7D1A3681B051B0D45
:101C70008342D2D1EE22E368D2021340BB42CCD1E0
:101C8000EBE7C0460040FDBF00C0004000E0004060
:101C900000F000408023024A9B000343D362704758
:101CA0000080054010B5140080221B4BD2051A603D
:101CB00000281AD00123194A1843194BDA61194A2E
:101CC00042401A62596298628022134BD2051A6010
:101CD0001549164A1160E022D2041A60002C07D17F
:101CE0008022134B12061A6010BD0D4BD861EBE732
:101CF00063011B1B9A008023121912015B049A4294
:101D000000D30C4A0C4B1A60054B5A608022084BDA
:101D1000D2051A60E8E7C04600B00540D3C007B05E
:101D2000008005402D3FF84FFCFF010008200140D6
:101D300000A00540FFFFFF00601B0020AA23064A09
:101D40001B0113602F230549D360054B19605368AD
:101D5000002BFCDA7047C0460040024000B0FA0099
:101D60000060024010B5002800D110BD01F000FA5B
:101D7000FBE7C04610B5094A0300146884B0002C84
:101D800008D0012200910648524203A9A047012031
:101D900004B010BD01F03CFA0020F9E75C1B002004
:101DA000651D001001480421014B18472005002043
:101DB000D51D0010142310B50100188804331B88AA
:101DC000984710BD162310B50100188802331B88F0
:101DD000984710BDF8B54746CE4680B50F1E19D0BE
:101DE00014239946043304000025012698464B46E7
:101DF0001888434621681B88984701C4431E9841B0
:101E0000013540420640AF42F1D13000C0BCB94676
:101E1000B046F8BD0126F8E7124A936F9B0815D229
:101E20009066D166002905D0FFE7FFE7FFE7516F15
:101E3000106F704704B580210906C2175140002871
:101E400000D0C84305F030FC002104BDF0B5146E8D
:101E5000556E576F166FFFF7E3FF146655665767A9
:101E60001667F0BD000000D0114A936F9B0813D293
:101E700010665166002905D0FFE7FFE7FFE7516FC5
:101E8000106F704704B5002801D00020C04305F052
:101E90000BFC002104BDC046F0B5146E556E576FA3
:101EA000166FFFF7E5FF1466556657671667F0BDB6
:101EB000000000D044464D4656465F46F0B4704799
:101EC000F0BCA046A946B246BB46704748404140D8
:101ED000484018B41B4B5B68FC46019308BD04DF07
:101EE0003323001018B4174B1B68FC46019308BD40
:101EF00000DF3D2300109446134A926F920809D2E6
:101F0000624618B40F4BDB68FC46019308BD0CDF3A
:101F1000F52500100C4AF0B5146E556E576F166F0C
:101F20006246FFF7EEFF084A146655665767166764
:101F3000F0BD18B4034B9B68FC46019308BD08DF55
:101F400099240010F80E0020000000D018B4044BB3
:101F50001B6EFC46019308BD60DF2B2900100000BA
:101F6000F80E002018B4044BDB6FFC46019308BD4B
:101F70007CDFB52800100000F80E0020024A034B59
:101F800000B500F0B5F900BD182D4454FB211940EF
:101F90008A0002D3920D092A08DA18B4064B1B6C8A
:101FA000FC46019308BD40DF5F2A001000B5FFF733
:101FB000E5FF04BC9646F0E7F80E0020132370B549
:101FC0001D78012D15D010DD1C48FFF7FBFE1C4CC1
:101FD00001008022200000F0E5FF022D06D0194804
:101FE000FFF7E8FE184B186070BD154C174BA36443
:101FF000F5E7164B124C23606360A360E360236136
:102000006361A361E36123626362A362E3622363AA
:102010006363A363E36323646364A364E36423658A
:102020006365A365E36523666366A366E36623676A
:102030006367A367E367A364D1E7C0465344000026
:10204000F80E00204C330000801B002001230010FC
:10205000F0B557464E464546DE46E0B587B002929B
:102060005A009A46530D9946109B4D0004006D0D81
:10207000002B01D000221A609A4A95427DD04B462F
:10208000002B7AD0002D00D182E027000E00914570
:1020900075D0013B0393AB4271DCCB0F0E03984626
:1020A000330B9B4680235B039C465B46624613438F
:1020B0001F005346060018036346000B0343029AB1
:1020C0000193039B0092AB4200D1AAE04346002B50
:1020D00000D1B7E033003C0000275E42A7414B46E9
:1020E000ED1A002D00DCC0E00120019B40421911D7
:1020F000FFF7BAFE002398464B4603935346AB4680
:10210000029004931BE032009A40150033005246BF
:1021100093401C004B464846D917009A019B00F09B
:102120001FFE4346524693404B4498465B4626006A
:102130002F009B1A361A8F419B46002B2BDD5B46E6
:10214000DA460C2B01DD0C239A46029ABB1153434D
:1021500051461D22521A1341202201335B10524274
:1021600099468B18CFD5202332005B1ADA40130032
:102170003A008A4015001D43C8E700275A4E380030
:10218000310007B0F0BCBB46B246A946A046F0BD40
:1021900000270026F3E7039B9946049B9A46009B81
:1021A000019CBC4200DD83E000D17DE0009B019CEE
:1021B000F61AA741BC4200DD8BE000D185E0009B10
:1021C000019CF61AA74102239C46E0443200009885
:1021D00001993B0092197B418B421ADC17D0009980
:1021E0008A425AD05346002B02DA43465B42984655
:1021F000109B002B01D042461A604B463B4A3000F0
:102200003900D21AFFF7A2FE07000E00B7E782429C
:10221000E5D9009B019CF61AA74101239C46E044A6
:10222000E0E7019B9F422FDD00980199434600188B
:102230004941002B3FD1039B361A8F419946012318
:102240009846CFE74B46ED1A002D00DD4CE7019B89
:10225000BB42BBDC009B019CBC4201D1B342B5D860
:10226000009B019CF61AA74133E000239846009B8F
:10227000019CF6186741002F2FDAF61867410223F8
:102280005B429C46E044A1E7009A019B9F4201D13A
:102290009642C9D827000E0071E7019A9342A1D156
:1022A0004346DB079ED5B4E7009BB34200D87DE7E9
:1022B000002FDCDB8AE7039B801BB9419946012391
:1022C0005B4206000F0098468CE7009BB34200D8A3
:1022D00075E701239C46E04478E701235B429C4676
:1022E000E04473E7FF0700000000F07F33040000C4
:1022F00010B5002482B00094FFF7AAFE02B010BD12
:1023000007B5604601880A0A0230DF2AFAD1C9B24D
:10231000820804D3028840880004104300E000686B
:10232000014A5050039007BDF80E00200FB403BCC3
:102330000CBCF0B50124E407634000E0F0B50C0DDF
:10234000CF0F661E3605891B640503D3C94340427F
:1023500000D30131640D03D0661CF60A07D0E41BDC
:1023600000207F00791C89078912803C24031D0D01
:10237000DF0F6E1E36059B1B6D0503D3DB435242F8
:1023800000D301336D0D03D06E1CF60A07D0ED1B90
:1023900000227F007B1C9B079B12803D2D032F1B7F
:1023A000661B58D4A446202E46DA20371400BC40C1
:1023B0001D00BD40F24033412A4380185941CB0FE4
:1023C00005D0C943C0430022644250415141624696
:1023D0004D0D28D10D0D07D100281FD024194041E3
:1023E0004941013A0D0DF9D0640006D3013000D304
:1023F0000131002C01D140084000013A0BD4941C5B
:10240000E40A04D112051144DB071944F0BDD907D1
:10241000204B194300E0D9070020F0BD0029DDD191
:10242000002CDBD1F0BD0132C6074008CD072843A0
:102430004908002EE1D0D9E73C2E29DA203E40376A
:102440001400BC4000D00124F24014431A00BB40E9
:102450001C43D317ACE7AC46202F08DA2036040023
:10246000B4400D00B540F84039412843A5E73C2F62
:102470000CDA203F40360400B44000D00124F8407C
:1024800004430800B1400C43C117EAE710001900EB
:10249000002494E70000F07FF0B50C0D661E3605B1
:1024A000891BE60A6405640D02D0651CED0A04D0A0
:1024B000002001210905803C2403A4461C0D671E51
:1024C0003F05DB1BE70A6405640D02D0651CED0ABD
:1024D00004D0002201231B05803C24037740644480
:1024E00097B484B296B27443070C7E43150C6F43C5
:1024F00080B26843361802D3012000043F1830042C
:10250000350C00197D41844688B29AB250430C0CB8
:1025100062431F0C7C438EB27E43921902D3012684
:102520003604A4191604170C3618674101BC81B291
:102530009AB25143040C62431B0C5C4380B2584373
:10254000121802D30120000424181004130C4018A0
:1025500063412D185E410020474106BC88B293B20A
:1025600058430C0C6343120C544389B251435B181B
:1025700002D301210904641819041A0C09186241D4
:102580006D1856410020474118BCF902720D1143E5
:10259000F0026A0D1043ED020A0D03D16D1940419E
:1025A0004941013B124E9B1B7600B3420ED26D0097
:1025B00007D30130002671416646354301D14008FA
:1025C00040001B05C918E4072144F0BD0BDA0133B4
:1025D00006D1013004D101314F0D01D04908F2E795
:1025E000E1070020F0BD013631050020EBE70000D7
:1025F000FF030000F0B51C0D671E3F05DB1BE70A5B
:102600006405640D02D0661CF60A04D00022012382
:102610001B05803C2403D0252D060026F6432E669C
:102620001E096E66CE0FF619B44649004F0D02D052
:102630007E1CF60A03D000200021403F3F033E1BD2
:10264000B600B444013F7F05C91B49082E6F01360F
:1026500076089C02950D25437543ED137543AD1324
:1026600001356D10F603761B0CB4CC02450D2C43DE
:10267000A2B2B3B25A43270C7B43350C6F43A4B2CA
:102680006C431B1902D3012424043F191C041D0CA4
:10269000A4187D4124196D41009A91B2ACB26143F6
:1026A000170C7C432B0C5F4392B25A43A41802D3FD
:1026B00001221204BF182204230C52187B41019CF2
:1026C0006C431B19520ED9010A434401A01A81B26E
:1026D000B2B2514303145A43360C734387B2774363
:1026E000D617D21900277E4136049B191704160C01
:1026F0007F185E417316ED18F30100268033754193
:10270000A90F06D16400690AE8055B0A184309D2DB
:102710002FE00422944480337541A90AA8059B0A3E
:10272000184326D3404149412404009A019B0D00DF
:102730005543641B4343E41A95B286B27543170CA4
:102740007E43030C5F4392B25A43B61802D3012270
:102750001204BF183204330C52197B4152429C417F
:10276000002C02D40022013051414008CA07104316
:10277000490802B06246D7079210084BD218084B9E
:102780009A4203D212058918C919F0BD0020002A07
:1027900001DC3900F0BD01331905F5E7FD03000048
:1027A000FE070000624618CA94465A46002A20DBFB
:1027B00004E0624618CA944600291ADAC01861413A
:1027C0005B463B415C46B4405246FA402243444695
:1027D0004D4662416B41904699462B46B3403D4180
:1027E000FC401C4352465B46A241AB4192469B468D
:1027F0007047C01AA1414B463B414C46B44042464B
:10280000FA40224354465D4662416B4192469B46E4
:102810002B46B3403D41FC401C4342464B46A2413F
:10282000AB41904699467047002200B500F00DF884
:10283000CA179A4200D100BDD8430121C9074140BF
:1028400000BD000000220B150AD410B5944600F01C
:10285000A7F81414013400DA0021CB17144C2047D8
:102860000020002170476244343A0CD40C2A07DA65
:1028700004009140904052422032D440214310BD88
:10288000D843D94310BD203207D40C46944052425D
:1028900020321141D040204310BD0800C91720321A
:1028A00003D452422032104110BD1800190010BD4F
:1028B000672800104A00520D144BD21A13DDFF2A6C
:1028C0001EDAD205CB0FDB071A43C300400F090302
:1028D000490A084310435B0001D301D0013070471F
:1028E0004308FBD2704702D0C80FC00770470A03E5
:1028F00012130132F8D1420F072AF5D1012200E06C
:10290000FF22C80F00028018C00570478003000036
:1029100000210A00002104E000210A00C11704E0A0
:102920000022002306E0C0460022CB175840594041
:10293000C01A994130B5184CA21A002903D10100E0
:1029400010D00020203A4C1512D104D2013A0018C0
:1029500049414C0DFAD3114CA24204D212058918F8
:10296000DB07C91830BDD243520D00200021F5E726
:1029700003D4013A00184941FBD50B324405C00A83
:102980004D052843C90A640003D000246041614119
:10299000E1E7E0D34408F8E732040000FE07000056
:1029A0000A0DCC0F531E1B05C91A520503D3C94388
:1029B000404200D30131520D03D0531CDB0A07D033
:1029C000121B00206400611C89078912803A1203DF
:1029D000014BD21A70470000FF030000023225D4D9
:1029E0000C2A1CDA1125AD1A0B002B4108320735D1
:1029F0000600EE40904091403143F0CC63431A15FD
:102A000000235A41554356435743BF02F4127605FB
:102A100076196741ED177F19801BB94170470C2269
:102A20000020C917490001310905DBE70902030E3F
:102A3000194300025342203208D40C00194194403B
:102A4000D840204300225041514170470800C91727
:102A5000203B2032F1D50020002100227047F0B544
:102A6000FFF728FA00F006F800F046F8FFF728FA1A
:102A7000F0BD000000B5FFF793FF30A4FFF7AEFFF5
:102A800000242C4D2C4ED20702D3F6436D426641F2
:102A9000520004D2A246A346A846B14603E0A0468F
:102AA000A146AA46B3466EA4A44601271F26FFF7F7
:102AB00080FE0137013E212FF9D100BD594684B275
:102AC0008DB26C43061475430B145E4382B25A43B5
:102AD000AD18EA1700D7D2431204B6182A042B0CFB
:102AE00012197341404649469D009B17920F2A4395
:102AF000904199413E2218E7494684B28DB26C4319
:102B0000061475430B145E4382B25A43AD18EA179C
:102B100000D7D2431204B6182A042B0C12197341A1
:102B2000504659469D009B17920F2A4350415941E8
:102B30003E22FAE6BB4DF09DC556F6367D510000AB
:102B40001A61140085880A00FB211900F0B5FFF70F
:102B5000B1F9404D0C002C4001D0AC4202D1090D1E
:102B6000090500201C002C4001D0AC4202D11B0DF5
:102B70001B0500220026ED02002B04D502266B4027
:102B8000694000D476424F1904D599420CDD0136D4
:102B9000694003E0BB4207DA013E6B4007001000CA
:102BA0003A000F0019003B0040B4002A0FD1002B5F
:102BB0000AD05C006415013409D14C00641501345D
:102BC00002D10139013B02E0002000212EE0FFF795
:102BD00011FD3E22FFF729FE82468B460020002190
:102BE00080460122920791461DA4A44601271F2674
:102BF000FFF7D8FD0137013E212FF9D14A46534650
:102C00000C3A01246407002752081B0005D49341A5
:102C1000001979416408F7D104E05341001BB94120
:102C20006408F1D1CE0749104008304340BC002E63
:102C30000AD0094C094D01D5E443ED43F60701D113
:102C400000196941001969413D22FFF76EFEFFF747
:102C500037F9F0BD0000F07F8D305A88A8F6433276
:102C6000694FBB610567AC1DB16E4096FCBAAD0FF4
:102C700072DB0BABA66EF50739BD9FE576ABFE03A5
:102C80004B6297BA5BD5FF01D694DBDDAAFAFF0051
:102C90005DEAEE5655FF7F006E77B7AAEAFF3F0068
:102CA000BCBB5555FDFF1F00DEADAAAAFFFF0F00FC
:102CB0006F5555F5FFFF0700ABAAAAFEFFFF030003
:102CC0005555D5FFFFFF0100ABAAFAFFFFFF00003B
:102CD0005555FFFFFF7F0000ABEAFFFFFF3F0000FD
:102CE00055FDFFFFFF1F0000ABFFFFFFFF0F0000C0
:102CF000F5FFFFFFFF070000FFFFFFFFFF030000DE
:102D000000000000000200000000000000010000C0
:102D100000000000800000000000000040000000F3
:102D20000000000020000000000000001000000073
:102D30000000000008000000000000000400000087
:102D40000000000002000000000000000100000080
:102D500000000080000000000000004000000000B3
:102D600051434343C9188C46110C83B24B4310B4F2
:102D7000040C614392B280B2504362431C041B0CAA
:102D8000001910BC59411304120CC0185141614480
:102D9000704700004840414048400E4B5B68184770
:102DA0000C4B1B6818470C4A936F9B0802D2094BC7
:102DB000DB681847F0B5146E556E576F166FFFF746
:102DC000F6FF054A1466556657671667F0BD014B56
:102DD0009B681847F80F0020000000D0491A00280F
:102DE00008D1084670470000C10FC90700D540420E
:102DF000002817D0F44603B40B4B1B68984706BC59
:102E000081409E384042803107D20B0607D04900EE
:102E1000490AC0051043084360470130F8E7490AF2
:102E20008902F5E770470000801B002041000A0E70
:102E300080231B067E2A0BDD9E3A0BDAC117400267
:102E4000400818435242D04049000131484370477E
:102E500000207047C00FC01801387047C0420DD322
:102E600000B540004008002100F012F8002801D40D
:102E7000404200BD8020000600BD0000034BDB691E
:102E8000FC4618471CDF412F00100000F80F0020FF
:102E9000014B5B6A18470000F80F0020034BDB6F03
:102EA000FC4618477CDF592F00100000F80F002067
:102EB000132310B512481C78FEF784FF0100012C83
:102EC0000AD003DD80220F4800F06CF80E48FEF7B0
:102ED00071FF0E4B186010BD0A4C5422200000F008
:102EE00061F80B4B6365A365E36523666366A366C0
:102EF000E36623676367A367E3672362E361E5E74C
:102F000053460000F80F00204C330000801B0020C7
:102F1000152F001007B5604601880A0A0230DF2A23
:102F2000FAD1C9B2820804D3028840880004104351
:102F300000E00068014A5050039007BDF80F0020E0
:102F40000021C2158032803201D0024A1047002091
:102F500070470000CD2A0000C30FDB0741000A0EB6
:102F600007D0FF2A08D00909054A891819434007E4
:102F700070471900002070470249C918FAE700009D
:102F8000000000380000F07F01480421014B184781
:102F900030050020D51D0010014B1B6818470000AC
:102FA00030050020014B5B68184700003005002009
:102FB000030010B5080011001B68984710BDC046FB
:102FC000F0B546464F46D646C0B5437C80460E0017
:102FD0001700002B46D0002A3FDD4B1E9946244B9C
:102FE0000125002400209A460DE04B461B5D0D3B59
:102FF0005A425341325DDBB20A2A0BD02B00013416
:1030000001359F421ADD002CEFD14346325D1B7C17
:103010000A2AF3D1002BF1D1A04204DA4346211A47
:103020001B6830189847434650461B680221984752
:10303000013428002B0001359F42E4DC874204DD87
:103040004346391A1B6830189847F619013E337801
:103050000D3B5A42534142461374E0BCBA46B14656
:10306000A846F0BD0368110030009847F5E7C04658
:10307000C8770010F0B557464E464546DE461C0060
:10308000D023E0B51B061F68344B83B006000D004B
:10309000180001A991469A4604F00EFB80460028CC
:1030A00008D1019B7FB29F4204D0504604F014FB2C
:1030B000012398466B1C03D1300003F0A5FD0500E9
:1030C000002C27D1264F274B1C68002C18D04B46CC
:1030D000002B21D1244B994602E0E468002C0FD04C
:1030E0002368002BF9D04B461B68002B01D0A3426C
:1030F000F3D120002A003100B847E468002CEFD15A
:103100004346002B25D103B0F0BCBB46B246A946CE
:10311000A046F0BD154FD6E7134B99460A239B46B0
:1031200002E0E468002CEBD02368002BF9D04B467A
:103130001B68002B01D0A342F3D12A0031002000EC
:10314000B8475A466B4620001A7101A90122B847B8
:10315000E7E7504604F098FAD5E7C046D00D0020C6
:10316000C12F00104C17002054170020B12F001061
:10317000F0B5CE46474680B583B06B46DE1CD02303
:1031800030701B061C681F4B804601A91800994629
:1031900004F092FA071E20D01B4B1C68002C28D08C
:1031A0001A4D02E0E468002C0FD02368002BF9D000
:1031B0002B68002B01D0A342F4D120000122310062
:1031C000FFF7FEFEE468002CEFD1002F11D140463E
:1031D00003B0C0BCB946B046F0BD019B64B29C428E
:1031E0000BD0484604F078FA074B01271C68002CE6
:1031F000D6D1484604F048FAE9E7034B1C68002C96
:10320000CED1E4E7D00D00204C1700205417002049
:1032100070B5040003F0F8FC002301000500012252
:103220002000FFF727FF084B1C68002C06D06368BE
:10323000002B05D09847E468002CF8D1280070BD19
:10324000E468002CF3D1F9E74C170020F0B54746AD
:10325000D64680B516000F0083B0002831D11D4B33
:103260001D4D1A685B68019200931C4B9A461C4BDB
:10327000984653461C68002C03D114E0E468002CE7
:1032800011D02B68002B01D0A342F7D1A368002BEB
:10329000F4D03100380098470028EFDD03B0C0BCFF
:1032A000BA46B046F0BD00210120FDF7EFFD4346D0
:1032B00000995B6A9942DCD842460198926A824240
:1032C00002D301204042E9E79942D2D00120404296
:1032D000E4E7C04618770010541700204C17002070
:1032E00000400540F0B54F46D6464646C0B50D00F5
:1032F000170082B0012842D1D0231B061C68214B45
:1033000001A918009A4604F0D7F98146002808D18F
:10331000019B64B29C4204D0504604F0DDF90123C5
:103320009946B8467B1C03D1280003F06DFC80460B
:10333000154B1C68002C14D0144E02E0E468002CDD
:103340000FD02368002BF9D03368002B01D0A342A3
:10335000F4D1200042462900FFF732FEE468002C39
:10336000EFD14B46002B06D1380002B0E0BCBA4684
:10337000B146A846F0BD504604F086F9F4E70127AF
:103380007F42F1E7D00D00204C1700205417002099
:103390000A4A1368002B05D10CE01A00DB680C32D6
:1033A000002B07D09842F8D1002902D1C3681360DE
:1033B000C16070470029FCD01060FAE74C1700206C
:1033C00010B500F09DF800F0EFF910BDF0B5CE4655
:1033D000474680B583B00400FDF74EFD260002008D
:1033E0000B000027B6185F41B94232D82FD0B9463A
:1033F0001B4B1C4D984643461C68002C03D116E01D
:10340000E468002C13D02B68002B01D0A342F7D125
:10341000A368002BF4D0012101A898470028EFDD14
:103420006B46187903B0C0BCB946B046F0BD012068
:103430000021FDF72BFD0C4B5A6A4A45DBD39B6AF2
:10344000B34201D24A45D6D001204042EAE7B04219
:10345000CDD901235B42994601267642F717C7E78B
:103460004C1700205417002000400540002903D0CD
:10347000437C002B00D1037441747047F0B50D1EDE
:1034800015DD0E4B0D271A680D4B4519D3185942FF
:103490004B410C495B005E5E20210478A64207D0B8
:1034A00093691942FCD101301460A842F5D1F0BDF6
:1034B00093691942FCD11760F2E7C046A41B0020B3
:1034C0000080FCBFA01B002030B504000D1E12DDE3
:1034D00000201021094B013C1A689369194208D158
:1034E000013093691942FCD1136823548542F4D109
:1034F00030BD0028FCD103204042F9E7A41B002086
:10350000E12110B50B4B0C481B780C4B49021B7882
:103510000B4B1860FDF74AF802210020FCF78CFFE6
:1035200002210120FCF788FF01210648FFF730FF48
:1035300010BDC046147A001000400340187A0010F5
:10354000A41B0020400500207047C0460022014B0C
:103550001A707047BE1B00204B790020FF2B0BD147
:103560008B79002B08D1CB79012B05D1082A03D9FF
:103570008A78024B09301A707047C046BE1B002083
:103580000120704770B5002915D11549537910797C
:1035900009781B0203430020994200D070BD537884
:1035A000012B0AD0022BF9D1002064220021FEF762
:1035B00079FB0120F2E70120F0E79478D27805004A
:1035C00012021443D20502D5620A93401D00054839
:1035D000FEF7F0FB7F210300214028009847C046FA
:1035E000BE1B0020554200000123037000487047B5
:1035F0000C78001048780B788A780002184312047F
:1036000010439622CB7810B51B060343D200934299
:1036100000D010BD0348FEF7CDFB002103000800D9
:103620009847C0465542000070B5184C82B006005D
:103630000D00200001A904F03FF8002808D1D02394
:103640001B061B68019A9A421CD0200004F044F823
:10365000002001F003FE002807D103256D42200061
:1036600004F012F8280002B070BD002001F00EFE38
:103670000028F2D02A003100002001F013FE051EC0
:10368000EBD0ECE703256D42ECE7C046881B002039
:10369000F0B5DE464F464646C0B5334B82B0814654
:1036A0000D00180001A99B4604F006F8002808D177
:1036B000D0231B061B68019A9A424FD0584604F04B
:1036C0000BF8002001F0CAFD00283FD00024002D97
:1036D00041DD264E11E04B460020191901F056FE3F
:1036E000804600F049FE002001F014FEFDF7C4FB07
:1036F000306071604444AC422DDA002001F060FE7D
:103700002F1B0200B84200DD3A00002AE3D100F08E
:1037100033FE002001F0FEFD002001F09FFD002897
:1037200019D0002001F04CFE0028E4D1FDF7A4FBE5
:10373000326873680F00002184460D4812184B410F
:103740009F4208D8D7D19445D5D904E00020002164
:10375000064B18605960584603F096FF02B0E0BC73
:10376000BB46B146A846F0BD881B0020F00E0020E5
:1037700020A107001F2010B5FEF7B4F8FA200021A1
:10378000800010BD10B5074C0021200003F094FF0D
:10379000002800D110BD00F0EFFD200003F074FF01
:1037A000F8E7C046881B002070B51E4B84B01B781C
:1037B00001F0EEFF1F201C49FEF7A4F801211F2095
:1037C000FEF77EF81948FDF767FCFDF7B5F906002E
:1037D000FDF752FBFA2204000D000023920012199B
:1037E0006B41994214D811D001210291002101911D
:1037F0000F4930000091FDF7A3F90400631E9C41BE
:10380000E4B2002808D1200004B070BD9042EBD98A
:1038100001225242D317E7E701210648FFF7B8FD1E
:10382000F1E7C0461C7A001085370010881B002085
:10383000753700105405002000487047C478001008
:10384000004870477078001070B50400174803787E
:10385000002B21D0002C06D1C1241548154BA40003
:103860004380048070BD052C1DD8134B1048A40064
:10387000E558811C002304E001330A800231132B38
:103880000ED0EA5CDCB2002AF6D1C0230134E4B2E7
:1038900064009B001C43E4E7112102F00FFAD9E712
:1038A000CA24A400DDE70020DCE7C046A81B0020F6
:1038B0002417002009040000D8780010F0B59823E0
:1038C00057464546DE464E466C4AE0B5D7588025F9
:1038D0003C006D02883B9A4683B02C402F420FD0AB
:1038E00001222321664B00205A54DA70654901F009
:1038F00073FA8022644B92021A65644B2C009A463C
:10390000FB0617D480235B011F4245D18023DB01D6
:103910001F4200D088E080231B021F4200D091E0AC
:10392000BC4200D0A5E003B0F0BCBB46B246A946FD
:10393000A046F0BD514B9B6D9846002B27D0524BB3
:1039400000249B460123994643460126B8461F00A2
:1039500004E001347600E4B2202C17D03742F8D0CE
:103960005B469E654B466508A3436D00ED18444BCE
:103970006D019C466544280000F08AFB00286CD14C
:103980000134B743E4B27600002FE5D147468023E7
:103990005B0154461F42B9D01C430023374A002123
:1039A0001360384A3A489360D3603A4A9360D360D0
:1039B000394A9360D360394A9360D360384A936040
:1039C000D360384A9360D360374A9360D360374AF4
:1039D0009360D360364A9360D360364A9360D36075
:1039E000354A9360D360354A9360D360344A93601C
:1039F000D360344A9360D360334A9360D360F0223B
:103A00009200FFF7C9FA314B314A00211A600020B9
:103A1000012201F0B7F980221B4B12031A658023A3
:103A2000DB011F4200D176E70122042100201C4364
:103A300001F018F91022144B1A6580231B021F4253
:103A400000D16DE70122052100201C4301F00AF995
:103A500080220D4B12011A6562E74B46AA8AA978AB
:103A600000200093002301F0DFF9280000F04CFA59
:103A700086E7210017487940FDF7A0FD00001150AE
:103A80005C170020000010500030115010000100A1
:103A90009C17002008001050100010501800105003
:103AA00020001050280010503000105038001050E6
:103AB0004000105048001050500010505800105056
:103AC000600010506800105070001050641B0020FF
:103AD00080011050F078001010B501210520FDF78D
:103AE000EFFE10BD10B500220021024800F034FAAC
:103AF00010BDC0467C1700208022024B5202DA64BF
:103B00007047C04600201150F0B5C64600B506000B
:103B100000F0D4F90C23354D0520AB673449FDF78F
:103B2000F1FE40239846334C402200212000FFF74D
:103B300033FA43460127A383212100232E4A6770CD
:103B4000A260136063545F3161844146A1870239EA
:103B500063542A4A2A496360E260A1620B60E26210
:103B6000284A63629360D360274A20009360D36041
:103B7000264A00219360D360254A40309360D36089
:103B8000244A9360D360244A9360D360234A9360AD
:103B9000D360234A9360D360224A9360D360224A61
:103BA0009360D360214A9360D360214A9360D360CD
:103BB000204A9360D360204A9360D3601F4A936089
:103BC000D360F0229200FFF7E7F91D4B1D4A300049
:103BD0001A6080239B052F64EB6490231A4AEA50F5
:103BE000FFF78AFF80BCB846F0BDC0460000115008
:103BF000BD3800105C1700208400105000011050E8
:103C0000800010500000105008001050100010509C
:103C10001800105020001050280010503000105094
:103C20003800105040001050480010505000105004
:103C30005800105060001050680010507000105074
:103C4000641B00208001105010D001000B785B062F
:103C500002D14B78052B00D070478A78014B1A604F
:103C6000FAE7C04600001150F0B5CE46474607239C
:103C700080B548798E780A790340C8787F2180071B
:103C800031401B02F40913434F00820F94469146C2
:103C90002A4D3A195201AA189670012666405670AC
:103CA000604600269383D6709077CA00012C29D0F5
:103CB00023488446880162448446AC44604682605E
:103CC0001660002929D01F4AC9009046414441602E
:103CD0003F223F3393434A46022A00D15B001A49F0
:103CE0003F190A687F01D3180B60184BED19534038
:103CF000EA604A469006184380231B0618436B6807
:103D0000186010E012488446880162448446AC443E
:103D100060468262166000290AD1002364012D19D1
:103D20006B600C4BEB600120C0BCB946B046F0BDE7
:103D3000064AC900904641444162C9E75C17002029
:103D40008400105004001050641B0020000010502C
:103D5000800010500001105000231C4A10B59360E1
:103D6000D3601B4A00219360D3601A4A1A489360BB
:103D7000D3601A4A9360D360194A9360D360194A9A
:103D80009360D360184A9360D360184A9360D360FD
:103D9000174A9360D360174A9360D360164A9360C2
:103DA000D360164A9360D360154A9360D360154A76
:103DB0009360D360144A9360D360F0229200FFF7BF
:103DC000EBF8124B124A1A6010BDC04600001050AA
:103DD00008001050100010509C17002018001050C0
:103DE00020001050280010503000105038001050A3
:103DF0004000105048001050500010505800105013
:103E0000600010506800105070001050641B0020BB
:103E10008001105010B57F200C0020404000E409C4
:103E2000110000191A00034B4001C01800F094F86B
:103E3000012010BD5C1700207F22130010B50B403D
:103E40000A420BD0C9098022580040180649400197
:103E500040181201002100F05DF810BD0222034855
:103E6000C909521A8266EEE75C1700200020115043
:103E70007F22100010B508400A4200D110BD002377
:103E8000C9094000401804494001081800220349AC
:103E9000C37000F03FF8F1E75C170020FFF7FFFF69
:103EA0007F21C309034A9B00014010B59A5802487C
:103EB000FDF784FB680500200479001080220D4B7B
:103EC000520410B51A600C4B0C491A6010008B6834
:103ED0009843FBD10A4C9C2200212000FFF75CF89C
:103EE0008022002152010748FFF756F80923636733
:103EF00010BDC04600E0004000F0004000C000409F
:103F0000000011500000105000230374438283828C
:103F10008361704710B58368002901D01C68214077
:103F2000002A11D08024E400114322420CD01A68E8
:103F300022420BD1074A0A401A60FFE7FFE7FFE77A
:103F4000FFE7FFE7FFE78368196010BD8078FFF7A0
:103F5000A7FFC046FFFBFFFFF0B5C646002300B534
:103F6000838201330374436804001E68838B81617C
:103F70001F1C934200D9171C8025BFB2D21B93B2DD
:103F8000E278ED0063823D43002A02D09025AD0126
:103F90003D4301204240E2706278002A51D0002B5C
:103FA0001DD1A023DB011D43354B1B6C354B33402A
:103FB0008026B6051E436368A2681E6013685B0511
:103FC0005AD4314B2B401360FFE7FFE7FFE7FFE7D1
:103FD000FFE7FFE7A3681D6080BCB846F0BD802204
:103FE00052011543264A126C920703D4A278D209D3
:103FF000012ADBD1A28B111C9A4200D9191C8027FF
:104000008AB2FF009B1A90461743E2789BB2638204
:10401000002A03D090274146BF010F4301214A40A7
:10402000E2706278002A19D0002B02D18023DB01D4
:104030001F43164B3F043340A026F6053D431E4365
:10404000B9E73A00E068FEF7ADFFA3699C4680231C
:1040500067441B021D43A761638AA0E7E0684246EC
:10406000A1694030FEF79EFFA3694344A36180230A
:104070001B021F43638AD7E7A078FFF711FFC046F2
:1040800000001150FFFFFFAFFFFBFFFFFFFFFFDF4F
:10409000F0B5C64600B5067C0400002E00D1D3E082
:1040A00083681A681D684378AD05AD0D002B51D1AA
:1040B000838AEB189BB28382A18B8D4207D20023A7
:1040C000638263681B68300080BCB846F0BD6268DC
:1040D0001268520002D58D4200D175E0638A002B30
:1040E000F1D062681F1C16688B4200D90F1C802516
:1040F000BFB2DB1BE2789BB2ED0063823D43002A36
:1041000002D09025AD013D4301214A40E270627822
:10411000002A68D0002B2AD1A023DB011D434F4B7E
:104120001B6C4F4B33408026B6051E436368A26864
:104130001E6013685B0500D58DE04A4B2B40136071
:10414000FFE7FFE7FFE7FFE7FFE7FFE7A3680026DA
:104150001D60B8E72A00C1688069FEF723FFA38AC3
:10416000A269EB189BB25219A382A261A4E7802234
:1041700052011543394A126C920703D4A278D2092E
:10418000012ACED1A28B111C9A423FD880278AB235
:10419000FF009B1A90461743E2789BB26382002A85
:1041A0002FD101214A40E2706278002A3ED0002BD4
:1041B00002D18023DB011F432B4B3F043340A02659
:1041C000F6053D431E43B1E7A26815686278AD016C
:1041D000AD0D002A1CD1EB18A3828D4200D37DE7E0
:1041E000002363826FE73A00A169E068FEF7DAFE18
:1041F000A3699C46802367441B021D43A761638A11
:1042000088E790274146BF010F43CAE7191CBDE765
:10421000E1682A004031A069FEF7C4FEA38AA18BA1
:10422000EB18A382A3695B19A361D6E7E068424655
:10423000A1694030FEF7B6FEA3694344A361802321
:104240001B021F43638AB2E77F238178074A08482D
:104250001940FDF7B3F9A078FFF722FE00001150D6
:10426000FFFFFFAFFFFBFFFFFFFFFFDF6805002041
:1042700024790010024B5878431E9841C0B2704711
:104280008C140020024B18784007C00F7047C046BE
:104290008C140020014B18787047C046BA1B0020D0
:1042A000F8B54746CE4680B5294F05003B78002B30
:1042B00004D00120C0BCB946B046F8BD532200214D
:1042C0002448FEF769FE244C2000FCF7E5FE234B52
:1042D0001C60234C20001C30FCF7FAFE200001F08B
:1042E000A1FC204B204E1C60204B9846002B04D094
:1042F0003000FFF779F91E4B1860424600243378EE
:10430000002A1DD01B4A9046194A91469C4210D360
:104310001BD14346984701343378E4B2A342F5D227
:104320002800FFF7F1FB2800FFF7D6FB01233B70C5
:10433000BFE74A46630012681B19DB009B58E9E798
:1043400001F04AF83378002BEAD000231B68FFDE27
:10435000BA1B00208C14002044140020E01400201C
:1043600070050020E4140020B91B0020E93500107E
:1043700054110020D9530010F0B5DE4657464E4682
:104380004546E0B58BB001F009FA002800D144E1C0
:10439000C24BC34E9B4607AC3568EA69EFF3108108
:1043A00072B61368002BFCD0BFF35F8F2962280020
:1043B000210001F0ABFAEA692B6ABFF35F8F00219D
:1043C000116083F31088002800D126E16378082B60
:1043D000E2D85A469B00D3589F466368002BDBD037
:1043E000A0689847D8E77F222179AE4B0A40550054
:1043F000C8095B191B18180001273030C578BD4368
:10440000C570C5780337BD43C570002A00D10BE1E4
:10441000A54ADB7C002A06D0A44A1278934200D237
:1044200091E19B1ADBB2002B00D0F6E0A04D62793F
:104430002078A368A847AFE701229A4F01213B7873
:10444000042013433B703323FA5C8A43FA54FA5C2A
:104450008243FA540133FA5C8A43FA54FA5C824389
:10446000FA54237800209A4600F066FE60222379F1
:104470001A40602A0DD0402A00D1F2E0DB06DB0EA4
:10448000012B00D16AE1022B00D121E1002B00D1E8
:10449000F6E020780021FFF7CFFC80212078FFF79D
:1044A000CBFC79E77F4B1B78DB0700D474E7814BAB
:1044B000002B00D170E700E000BF6DE7794B1A7860
:1044C000D20700D468E77C4A002A00D164E7187854
:1044D0000007C00F00E000BF5EE7744D724A00277E
:1044E0002B78002A00D1B6E0744A90469F4208D348
:1044F0009F4200D0B2E00137FFB29F4200D94BE7A4
:10450000F6D2414609687A008C46D219D20062443C
:104510005269002AEFD02078904701372B78FFB2FC
:104520009F42E3D938E72378604D5F4A98460027D9
:104530002B78002A00D186E0614A91465F4A924674
:104540002A0045469046BB425ED800D078E04B46F4
:1045500028009847434601371B78FFB2BB42F2D28E
:10456000504D532200212800FEF716FD1022FF2196
:10457000E81CFEF711FD28002022FF211330FEF772
:104580000BFD00F0CFFD4F4B002B00D104E700E006
:1045900000BF01E72378454D434A984600272B7812
:1045A000002A47D0464A9146444A92462A00454648
:1045B00090469F421FD343D14B462800984743461D
:1045C00001371B78FFB2BB42F3D2364D5322002194
:1045D0002800FEF7E1FC1022FF21E81CFEF7DCFCBE
:1045E00028002022FF211330FEF7D6FC00F09AFDB0
:1045F0002379AB70D0E6524612687B009446DB19F3
:10460000DB0063445B68D8E7524612687B0094463F
:10461000DB19DB0063445B689AE70BB0F0BCBB4678
:10462000B246A946A046F0BD62792078A36800F0A2
:1046300097FDB1E6404600F00DFF2B78002BC4D06B
:1046400000235B68FFDE404600F004FF2B78002B60
:1046500000D185E7F4E7002B00D19DE600235B69DC
:10466000FFDE1948002800D113E700F065FD0021A6
:10467000504608AA00E000BF002800D08CE608E7FA
:10468000202A00D19FE0002A00D002E76379092B9D
:1046900000D9FEE60D4A9B00D3589F465079001082
:1046A000E41400208C140020E9350010B91B002010
:1046B00049560010000000000000000054110020C6
:1046C0005554001000000000000000007479001034
:1046D0007023217A0B4200D0DBE60F330B405B00E6
:1046E000F818CD090093C14B4019C07C002B06D0AF
:1046F000BF4B1B78984200D288E0C01AC0B2002895
:104700007ED1002A00D015E1BA4B01936379984617
:104710000223424699469A43012A00D10EE14346BC
:10472000002B00D0B5E6009B06AAFB185D193035BA
:10473000EB7802329B07DB0F13805046022308A957
:1047400000F092FC28E65A00D318AB4ADB0012684E
:10475000D318002B00D160E71D6968E6237A0F2B80
:1047600000D996E6A14AFB18DB78002A05D0A04ABA
:104770001278934264D39B1ADBB2002B00D088E6F8
:104780009E489C4D00F0D8FC00215046EB6808AADA
:104790009847002800D0FFE56022150023791D40CE
:1047A0001A4200D075E663790A3B012B00D970E606
:1047B00000F0C2FC63790A2B00D1EEE0504608A954
:1047C00000F03AFCE8E5237A0F2B00D961E6874A2E
:1047D000FB18DB78002A06D0854A1278934200D273
:1047E000D0E09B1ADBB2002B00D052E68348814D0B
:1047F00000F0A2FC00215046EB6808AA98473BE76E
:10480000002A00D045E6002301937FE743009C4641
:10481000794B60441B68C0009C46030063440193CD
:10482000002A00D172E7002B00D132E6D86800F0F0
:1048300083FC019B00215046DB6808AA98471BE7D0
:104840006D4A5D00EB181568DB00ED18002D00D1F6
:104850001FE6E86896E7E388012B00D019E60822F6
:104860003B785046934308A93B7000F0E5FB93E585
:104870000220397806AB9A1C8B068908DB0F0140B1
:104880000B4359E7A37901931A007B789A4207D02A
:104890007B78002B00D01EE1019B002B00D0B3E001
:1048A000019B504608A97B7000F0C6FB74E57B783D
:1048B00006AA023213705046012308A900F0D4FB67
:1048C0006AE5E088030AC0B20F2B00D9E1E54C4944
:1048D0009A008A58974608A800F034FC5046A179FF
:1048E000FFF700F902223B7813433B7054E5E3885D
:1048F000012B00D0CDE508223B785046134308A990
:104900003B7000F099FB47E5022B00D194E13D4B51
:10491000002B00D1BDE500E000BF0200002A00D15D
:10492000B7E5D37891781B020B43504608A900F0F5
:104930009BFBA1E62F4B3148019378E7E288002AE0
:1049400009D14346012B3DD0009BFB185D19303542
:10495000EB789B072AD5019D002D00D11CE5EB6863
:104960001800009300F0E8FBEB68002108AA50460D
:104970009847002000F0E0FB3423FB5CDB0700D508
:104980000AE51BE71C4A5D00EB181568DB00ED1813
:10499000002D00D17DE5E8682AE706AB9A1C504659
:1049A000012308A9157000F05FFBF5E45046FFF7FE
:1049B00043FA0222EB7813430122EB70EB781343A6
:1049C000EB70C8E7009BFB185D193035EB789B074F
:1049D000C1D55046FFF74CFA4A46EB78934342461E
:1049E000EB70EB789343EB70B5E7C046E935001008
:1049F000B91B0020DC79001054110020655500100F
:104A00009C79001000000000581EC0B2FEF718FF8D
:104A1000002800D13DE543780493022B00D038E50F
:104A20000121C3799A115B110A400B4052011B010D
:104A300013433A782F318A4313433B700923994635
:104A4000C37882781B021343C31881440393039BEA
:104A50004B4500D8E9E04B4601225B7800920B2BD6
:104A600007D14B46DB7800934B461B7899444B4665
:104A70005B78042B00D00CE54A46039B00259B1A6B
:104A80009BB202936E4A6F4B1B78002A16D162E0EC
:104A9000AB4271D16C4A6D4B904649465046029AE2
:104AA00098478446082802D9029A824269D2654B07
:104AB00001351B78EDB2AB4200D2EAE4AB42E7D954
:104AC000634A6B0012685B199046DB0098444346CA
:104AD00005929B68E1E75046FFF73EF9BB78594DD8
:104AE000574A009300212B78002A2DD0584A90462F
:104AF0002A000D0091469D421DD300D0A0E5554BE4
:104B0000504698474B4601351B78EDB2AB42F2D286
:104B1000532200213800FEF73FFA1022FF21F81C33
:104B2000FEF73AFA38002022FF211330FEF734FA5C
:104B3000009BBB70B0E6424612686B0094465B195E
:104B4000DB0063445B68DBE7504600F083FC2B78B6
:104B5000002BDDD074E5029B49461A00504698466A
:104B600000F08EFC8446082801D9404507D9354B12
:104B70001B78002B00D18CE400239B68FFDE324BB6
:104B80009846009B012B48D0009B002B10D04B4631
:104B90009978002305E0D5700133009ADBB2934287
:104BA00006D2CA18D2B2BA18D078FF28F3D070E46F
:104BB0003800E0462B0049466246133000F02EFED6
:104BC000204BC1441B78AB4200D340E761E4224B49
:104BD000002B00D15DE400E000BF0200A1E6FEF77B
:104BE0002BFE1223020008A9504600F03DFA43E5CF
:104BF0001A4B002B00D14CE400E000BF021E00D194
:104C000047E45046137808A900F02EFA34E52189CC
:104C1000FEF71AFE021EF4D13BE442460B4B9268AB
:104C20009A42B4D1049B0093B1E70D4B002B00D105
:104C300036E600E000BF33E6FEF702FE02006DE656
:104C4000E9350010B91B0020DC79001081540010F8
:104C50005411002055540010000000000000000016
:104C60000000000030B587B005000C000C220021C8
:104C70006846FEF791F96B461D705C70042C4FD0AE
:104C800009D8022C34D0032C19D13C4B1A78520786
:104C900058D407B030BD052C11D1384B1A78D20743
:104CA000F7D504211A788A431A70354B1C68E269DB
:104CB000EFF3108172B61368002B09D1FBE7304B7C
:104CC0001C68E269EFF3108172B61368002BFCD008
:104CD000BFF35F8F21626946200000F0E5FEE269C4
:104CE000236ABFF35F8F0021116083F31088D0E740
:104CF0000121224B1A788A431A701A780331A24391
:104D00001A7000225A701A788A431A701C4B1C6859
:104D1000E269EFF3108172B61368002BD8D1FBE77C
:104D2000164B1A78D207B4D504211A780A431A70A0
:104D3000134B1C68E269EFF3108172B61368002B05
:104D4000C6D1FBE704211A7803A88A431A70002110
:104D50000C22FEF721F96B466A461D730523537337
:104D6000074B1C68E269EFF3108172B61368002BE1
:104D7000FCD0BFF35F8F216203A9ADE78C14002044
:104D8000E414002070B584B001AC06000D000C22C4
:104D900000212000FEF700F9012363700D4B2571FF
:104DA0001D682670EA69EFF3108372B61168002956
:104DB000FCD0BFF35F8F2B622100280000F074FE4F
:104DC000EA692B6ABFF35F8F0021116083F31088BB
:104DD00004B070BDE4140020002330B585B001ADEF
:104DE0006B8028700633082202A86B70FEF7DAF891
:104DF0000C4B1C68E269EFF3108372B6116800294E
:104E0000FCD0BFF35F8F23622900200000F04CFE2E
:104E1000E269236ABFF35F8F0021116083F310887A
:104E200005B030BDE4140020F0B5C646804600B59C
:104E300084B001AC0F0016000021082220001D00E4
:104E4000FEF7AAF843462370072363700F4B657182
:104E50001D682771A660EA69EFF3108372B61168C6
:104E60000029FCD0BFF35F8F2B622100280000F0E7
:104E70001BFEEA692B6ABFF35F8F0021116083F389
:104E8000108804B080BCB846F0BDC046E4140020D1
:104E9000F0B54646D6464F468046C0B50C001500D4
:104EA0001E00002A2ED070239946184B00279A46E0
:104EB0006378052B0FD1E1788907890FB1420AD1B8
:104EC0004A46A3781A4206D153462000997800F04A
:104ED00069FC002805D10020E0BCBA46B146A846CE
:104EE000F0BD21004046FEF7BFFE0028F3D0A378B6
:104EF000DA09012A08D0089A137023780137E418D8
:104F0000AF42D5DB0120E7E7099AF5E78C140020D2
:104F1000702270B58B7805000C001A4201D0002079
:104F200070BD064B2000997800F03CFC0028F6D0BC
:104F300021002800FEF798FEF2E7C0468C140020FE
:104F400070B57F240C406300144CC909E418641840
:104F50003034E378DB07DD0F002B18D1E3785B07F3
:104F600001D5280070BD01210D4E4942306802F084
:104F7000ABFBE378DB07DD0F002B0AD1E3785B079F
:104F800008D40422E37801251343E37002E00025EE
:104F9000E7E70025306802F077FBE2E78C14002099
:104FA000E014002070B50C0001210F4D4942286823
:104FB00002F08AFB7F2121404B000C49E409C9180B
:104FC00009193031CB780024DB0708D4CB785B0794
:104FD000DC0F002B03DA0422CB789343CB702868D4
:104FE00002F052FB200070BDE01400208C14002061
:104FF00070B57F250F4C0D406D0064190600C8097F
:1050000024183034E5780020ED0700D570BD012567
:10501000E0782843E0703000FEF7FCFE0028F5D170
:105020000122E3789343E370E37803329343E37020
:10503000ECE7C0468C14002070B50A4E0500300025
:1050400008220C00FDF7AEFF00237F21F3602278D9
:10505000B36091425B412800D90100220023FFF791
:10506000C7FF70BD30140020F8B5CE4647469146C4
:105070002A4E80B50822070030000D009846FDF743
:1050800091FF4B46B3600023F381EC79A9792402A8
:105090000C43231C444500D943469AB29046B38141
:1050A000002C13D0002A1FD04B46002B34D0131CE9
:1050B000402A1FD89BB2984633787F2B20D80021F6
:1050C000174A43463800FFF793FF09E07F222B7809
:1050D00038009A42644100230022E101FFF788FF73
:1050E000C0BCB946B046F8BD33787F2B11D98021BA
:1050F0000022E6E740239BB2984633787F2BDED927
:10510000074C424649462000FDF74CFF8021220013
:10511000D7E700210022D4E70020E1E73014002087
:105120004C14002010B5142200210248FDF734FF72
:1051300010BDC04630140020014B18617047C046B6
:105140003014002010B5054C010008222000FDF7A6
:1051500029FF0023A360E36010BDC0463014002087
:10516000F8B53B4C1D0023780600DA09C9098A42CC
:1051700013D00020002D00D0F8BD364B002B03D0FB
:1051800021003000FEF762FD2369002B44D022008D
:105190000221300098470120EEE77F2B06D8A06857
:1051A000002837D02A002C49FDF7FCFEA368E289CD
:1051B00059195219E38892B2E281A160934214D046
:1051C0003F2D12D9A589A81A071C80B240282FD8D4
:1051D0002378BFB27F2B2DD80021AA4235D01E4A9A
:1051E0003B003000FFF704FFC6E72369002B05D022
:1051F000220001213000984700280FD07F22002193
:10520000237830009A42494100230022C901FFF768
:10521000EFFEB1E70020AFE70120ADE7002130004D
:10522000FEF70AFE30008021FEF706FE0120A3E70C
:105230004027CDE7AA4207D0074C3A002000FDF7EF
:10524000B1FE80212200CBE780210022C8E7C046C2
:10525000301400204D3C00104C14002010B5040008
:10526000FFF708F8002801D1002010BDFFF70AF869
:105270000028F9D1B620800044430348001903797F
:1052800001201840F1E7C04658110020B6239B00CA
:10529000584310B5024B1030C01800F011FB10BD80
:1052A00058110020F0B5B625AD0045432C00C64688
:1052B000174F1034E41900B5200092B200F074FBCF
:1052C0000600200000F014FB3F2803D8300080BC0B
:1052D000B846F0BD7B190020D9789846FFF730FE1C
:1052E0000028F3D0200000F003FB3F280AD99623C2
:1052F0009B00EA184346D219D97800204023FFF7D3
:1053000077FEE3E743460020D978FFF74BFEDDE761
:1053100058110020F8B50400FEF7ACFF002801D1B9
:105320000020F8BDFEF7AEFF0028F9D1B6208000BE
:1053300044432500144E2C35AD19280000F0C0FA66
:105340000028EDD037190020B978FFF7F9FD0028C3
:10535000E6D0A6239B009C466444A41921002800A3
:10536000402200F021FBB978051E08D0030022007E
:105370000020FFF73DFE0028D2D02800D1E7002012
:10538000FFF710FECCE7C0465811002070B5B624D8
:10539000A4004443094B2C34E418050092B22000C9
:1053A00000F0C0FB0600200000F08AFA3F2801D878
:1053B000300070BD2800FFF7ADFFF9E7581100205D
:1053C000B6239B00584310B5024B2C30C01800F098
:1053D0008FFA10BD58110020B622F0B51B4C83B0D7
:1053E000002120009200FDF7D7FDFF236371184BC9
:1053F00080260025E3800127082321002000760075
:1054000023733200278148310095073B103000F0AC
:105410001BFA2100200049313200FF31012300979F
:105420002C3000F011FA92239B00E6183000FBF7B5
:1054300033FE94239B00A662E61830006562FBF7FA
:105440002BFE2664656403B0F0BDC04658110020F1
:1054500000C2FFFF10B5094C052200212000FDF716
:105460009BFD20002C34103000F0DCFB200000F00D
:10547000D9FB0121200000F0FBFB10BD58110020DA
:10548000F0B54B79060083B0022B02D18B79022B49
:1054900003D00025280003B0F0BD2F4FBB78002BB0
:1054A000F7D18B7809253B700C780C196378242B85
:1054B0000BD1082A02D80FE0AA420DD32378E418B2
:1054C000ED186378ADB2242BF6D0052B20D0042B39
:1054D00002D163790A2B2ED0204C200000F008FA6C
:1054E0003F28D7D92600103E0020F178FFF728FD8D
:1054F0000028CFD0200000F0FBF93F2816D99223D6
:105500009B00E218F17840230020FFF771FDC1E70E
:1055100021003000FFF7FCFC0028BAD0A3787B7094
:105520002378ED18E4186378ADB2D0E7F178002065
:10553000FFF738FDAEE70A4B27780193013300935C
:10554000022202233000E119FFF7A2FC0028A0D0BC
:105550000E35ED19ADB2BFE75811002068110020DB
:105560005A110020F8B5602314001278050013408A
:105570000020202B12D12F4A6379277916781B023D
:105580003B439E420AD16378222B27D007D8202B99
:1055900017D0212B02D100293DD00120F8BD232BAB
:1055A000FCD100293FD00229F7D1234B002BF4D0A6
:1055B000E178A37809020020194300E000BF012030
:1055C000ECE7002927D00229E7D11C4B002BE4D0BF
:1055D0000020911DFEF70EF80120DFE7002922D000
:1055E0000229DAD101252E00A378E47801392402BA
:1055F0001C43147126402C321000714000F038FB1F
:105600000F4B002BC9D06208002031002A4000E077
:1056100000BF0120C2E7072321002800094AFFF745
:1056200023FD0120BAE721002800FFF705FD012036
:10563000B4E7C0465811002000000000F535001006
:10564000000000005E110020F8B557464E46454662
:10565000DE46E0B5494F8046FA780C001E008A42CB
:1056600064D19AB296239B00FD1810239B46BB443D
:105670002900584600F056FA414BD946002B18D065
:105680007B79D946FF2B14D0002E12D0AA1992464E
:1056900003E0013555450CD07B792A789A42F8D140
:1056A000484600F01DF90028F3D1797900E000BFE9
:1056B000EFE7344B002B04D0484600F011F90028E6
:1056C00052D0484600F014F93F2834D84A46103AE0
:1056D0009378A34207D001242000F0BCBB46B24619
:1056E000A946A046F8BD284B002B02D0002000E0C0
:1056F00000BF0020FFF70EFE0028ECD1234D28004C
:1057000000F0DEF80028E6D1002EE4D0B306E2D1A6
:105710002C3D4046A978FFF713FC041EDBD0002384
:1057200000224046A978FFF763FCD5E7BB788B429F
:10573000D9D00024D0E74D46103D0020E978FFF78E
:10574000FFFB002801D1AB78C3E7484600F0D0F852
:105750003F280CD99222920040230020E9784A4445
:10576000FFF746FCAB78B4E700E000BFA9E70020F4
:10577000E978FFF717FCAB78ABE7C046581100207B
:105780000000000000000000000000008411002064
:1057900010B50020FEF784FD10BDC04610B5FEF721
:1057A00079FD10BD072210B5447903792240120219
:1057B0001A43C3789B079B0F022B05D0032B15D0F0
:1057C0000020012B08D010BD02291CD0002040234E
:1057D00093424041C0B2F6E702394B4259410D4B6A
:1057E0009C46614491424041C0B2ECE702394B42D1
:1057F0005941F023002049429B0019404031914219
:105800004041C0B2DFE7044B9C46624453425A41D8
:10581000D0B2D8E7FF03000000FEFFFFF0B5002A7A
:1058200011D000247F274D78052D06D13D008E78BC
:1058300035406D00F6094519AB550D786419A4B2D1
:105840004919A242EFD8F0BDF0B5C64600B5150023
:1058500006AA1E001378802204000F009846120248
:1058600095422AD84069002803D00121494201F01D
:105870002BFFA069002803D00121494201F024FF39
:105880004346A5806D00ADB223726B1EA381002339
:1058900060696D42E3812760E6806581238200288C
:1058A00001D001F0F1FEA0690124002801D001F02F
:1058B000EBFE200080BCB846F0BD0024F9E7C046EE
:1058C000C189028A8B1A9BB2914202D242899B1AE9
:1058D0009BB28288101C9A4200D9181C80B2704773
:1058E0000300C0891B8AC01A43425841C0B27047A6
:1058F00010B5C489018A8388621A92B28C4202D29E
:105900004089121A92B2981A80B210BD70B5040084
:1059100080690E00002803D00121494201F0D4FE25
:10592000E189228A88B28D1A93B2ADB2914202D235
:105930006289AD1AADB2A288AA4207D2904225D29E
:1059400061895118411A89B215002182002D02D1B6
:1059500022E09B1A9BB29A42FBD9E288216853430A
:105960003000C918FDF71EFB228A0125531C9BB28B
:105970009A4214D9002362899B189BB2A0692382A2
:10598000002801D001F080FE280070BD811AA58991
:1059900089B28D42D8D2D3E70025238A9BB2A2894F
:1059A0009A42EBD2E7E7C046F0B54F464646D646A8
:1059B0000500806988469146C0B5002803D00121C2
:1059C000494201F081FEEA892B8A91B2D61A9CB233
:1059D000B6B29A4202D26B89F61AB6B2AF88B74213
:1059E00009D2B94254D26B89FB18CB1A9BB23E0044
:1059F0002B822C8AA4B2002E50D04B46B14545D8FC
:105A00009EB2A74203D8E41BA4B2A742FBD9EB88FD
:105A1000381B190099462B6861439C4680B261444B
:105A2000864225D94B46584383B21A0040469A46CF
:105A3000FDF7B8FA4B464046F71BE4195C4329686A
:105A4000A2B25044FDF7AEFA2A8A93199BB29A4249
:105A500018D96A899B189BB2A8692B82002801D0AB
:105A600001F012FE3000E0BCBA46B146A846F0BDD7
:105A70004A4640467243FDF795FA2A8A93199BB22B
:105A80009A42E6D8AA899A42E6D2E2E7331CB7E7FF
:105A9000CB1BAA899BB29A42A9D2A4E72B8AAA89D6
:105AA0009BB29A42D8D2D4E7F8B5040040690E0000
:105AB000002803D00121494201F006FEE289218A33
:105AC00095B2531A9BB2914202D962899B1A9BB23A
:105AD000A2889A4221D02B00954203D39B1A9BB2F5
